:100000000C942D070C944A070C944A070C94932FD8
:100010000C944A070C944A070C944A070C944A071C
:100020000C944A070C944A070C9426160C94471A11
:100030000C9420280C944A070C944A070C944A0705
:100040000C944A070C944A070C944A070C944A07EC
:100050000C944A070C94FF160C944A070C944A0718
:100060000C944A070C944A070C944A070C944A07CC
:100070000C944A070C944A070C944A070C944A07BC
:100080000C944A070C944A070C944A070C944A07AC
:100090000C944A070C944A070C944A070C944A079C
:1000A0000C944A070C944A070C944A070001EA8012
:1000B0001E2301EA801E0106EA80FF2406EA80FF73
:1000C0000704EA80FF2A04EA80FF1902EA80FF3C65
:1000D00002EA80FFFF00000000000155FF1E23011F
:1000E00055FF1E010655FFFF240655FFFF07045567
:1000F000FFFF2A0455FFFF190255FFFF3C0255FF81
:10010000FF0A0255FFFF140255FFFF1E0255FFFFB5
:100110002D0255FFFF370255FFFF410255FFFFFF3C
:1001200000000000000115FF1E230115FFFF01065E
:1001300015FFFF240615FFFF3205AAFFFF3903AAAA
:10014000FFFF3E03AAFFFF070415FFFF190215FF7B
:10015000FF290415FFFF3C0215FFFFFF0000000010
:100160000001BFFF1E2301BFFF1E0106BFFFFF24CA
:1001700006BFFFFF0704BFFFFF2A04BFFFFF1902EE
:10018000BFFFFF3C02BFFFFFFF000000000001AA0D
:10019000FF1E2301AAFF1E0106AAFFFF2406AAFFD5
:1001A000FF0704AAFFFF2A04AAFFFF1902AAFFFF04
:1001B0003C02AAFFFFFF00000000000180FF1E2399
:1001C0000180FF1E010680FF80240680FF80070457
:1001D00080FF802A0480FF80190280FF803C02801B
:1001E000FF80FF00000000000100FF1E230100FF50
:1001F0001E010600FFFF240600FFFF070400FFFFAB
:100200002A0400FFFF190200FFFF3C0200FFFFFF6E
:100210000000000029001E001F0020002100220015
:100220002B4614001A00080015001700E100040016
:100230001600070009000A00E0001D001B00060070
:10024000190005002A00E300437E2C002800A800C6
:100250003500270026002500240023472A0013002C
:1002600012000C0018001C00340033000F000E00B8
:100270000D000B00E10038003700360010001100BF
:10028000E600E400447E28002C00467E01001E00AB
:100290001F00200021002200010014001A000900A4
:1002A00013000A00010004001500160017000700E3
:1002B00001001D001B0006001900050001000100DF
:1002C00001000100010001000100270026002500B7
:1002D00024002347010033001C0018000F000D000C
:1002E000010012000C00080011000B000100380092
:1002F0003700360010000E0001000100010001006F
:100300000100010001001E001F002000210022004A
:10031000010014001A000900130005000100040088
:100320001500160017000A0001001D001B00060042
:100330000700190001000100010001000100010097
:100340000100270026002500240023470100330078
:100350001C0018000F000D00010012000C00080026
:100360001100100001003800370036000B000E00AD
:1003700001000100010001000100010001003A003C
:100380003B003C003D003E0035001E001F002000E9
:10039000210022000100000000000000D9004B00F5
:1003A0000100000000000000DA004E000100010022
:1003B000010001000100010044004300420041002F
:1003C00040003F002A0027002600250024002300CB
:1003D0004C0000004F00520051005000010000008E
:1003E0000000000000000000010001000100010009
:1003F00001000100010001000100010001000100F5
:100400000100490046006500000000000100E20014
:10041000E000E1000000390001007A007B007C0070
:100420007D00000001000100010001000100010049
:100430000100010001000100010001002A00270263
:1004400026022502240223023500310230022F0247
:100450002E002D003502310030002F002E022D021B
:10046000010001000100010001000100037C000007
:100470000000000000000000007C00000000000000
:10048000000000002078237825782778427E417E7E
:1004900021782478267828780000407E0100010029
:1004A0000100010001000000000000000000000049
:1004B000000000000000000000000000000000003C
:1004C000000000004F09000000005009000000007B
:1004D000AB00AE00AC000000010001000100010013
:1004E000010000000100000000000000000000000A
:1004F00000000000000000000000000000000000FC
:1005000000000000000000000000000000000000EB
:10051000000000000100A7520100010001000100DD
:100520000000000000000000530001000000250250
:10053000610060005F00230231022E005E005D005A
:100540005C002D00010038005B005A0059002E02AB
:1005500001006300620001000100010001000000D1
:10056000000000000000000000520152025203523D
:100570000452055200000000BD0000000000000011
:10058000A6000000000000000000000000000000C5
:10059000000000000000000000000000000000005B
:1005A00000000000007C0000000000000000065277
:1005B000037C0000000000000000000000000000BC
:1005C000000000000000000000000000000000002B
:1005D0000000000000DA0281FFD9F1DB20A4A62E82
:1005E000AF00A0C0D30000A1C8D30000AED580A842
:1005F0001F408D142000E701BA018D016001240124
:10060000D900AC000000783C1E000101010101018D
:1006100001010102020202020202020203030303B9
:100620000303030304040404040404050505050589
:100630000606060606070707070708080808090947
:1006400009090A0A0A0B0B0B0C0C0C0D0D0D0E0EF2
:100650000E0F0F0F10101111111212131314141585
:100660001516161717181819191A1A1B1B1C1D1DF9
:100670001E1E1F202021222223242425262627284F
:1006800029292A2B2C2D2D2E2F303132323334357F
:10069000363738393A3B3C3D3E3F40414243444582
:1006A000464748494A4C4D4E4F5051535455565861
:1006B000595A5B5D5E5F616264656668696B6C6D0B
:1006C0006F7072737577787A7B7D7E808283858781
:1006D000888A8C8E8F91939596989A9C9EA0A2A3BF
:1006E000A5A7A9ABADAFB1B3B5B7BABCBEC0C2C4C4
:1006F000C6C9CBCDCFD1D4D6D8DBDDDFE2E4E7E984
:10070000EBEEF0F3F5F8FAFDFF07087F0807003E6F
:100710005B4F5B3E003E6B4F6B3E001C3E7C3E1CC5
:1007200000183C7E3C18001C577D571C001C5E7F47
:100730005E1C0000183C180000FFE7C3E7FF000044
:100740001824180000FFE7DBE7FF0030483A060EE8
:1007500000262979292600407F05050700407F05EE
:10076000253F005A3CE73C5A007F3E1C1C0800080D
:100770001C1C3E7F0014227F2214005F5F005F5F1D
:100780000006097F017F00006689956A006060604D
:1007900060600094A2FFA2940008047E0408001088
:1007A000207E20100008082A1C0800081C2A0808BF
:1007B000001E10101010000C1E0C1E0C0030383ED5
:1007C000383000060E3E0E0600000000000000005B
:1007D000005F000000000700070000147F147F1472
:1007E00000242A7F2A120023130864620036495627
:1007F000205000000807030000001C2241000000F8
:1008000041221C00002A1C7F1C2A0008083E080800
:100810000000807030000008080808080000006030
:100820006000002010080402003E5149453E0000CF
:10083000427F4000007249494946002141494D33F9
:10084000001814127F10002745454539003C4A49DD
:10085000493100412111090700364949493600460E
:100860004949291E00000014000000004034000027
:100870000000081422410014141414140000412232
:100880001408000201590906003E415D594E007CE2
:100890001211127C007F49494936003E41414122F4
:1008A000007F4141413E007F49494941007F09099C
:1008B0000901003E41415173007F0808087F000094
:1008C000417F4100002040413F01007F0814224148
:1008D000007F40404040007F021C027F007F0408F0
:1008E000107F003E4141413E007F09090906003E5C
:1008F0004151215E007F09192946002649494932A4
:100900000003017F0103003F4040403F001F2040A3
:10091000201F003F4038403F006314081463000369
:1009200004780403006159494D4300007F4141416F
:1009300000020408102000004141417F0004020130
:10094000020400404040404000000307080000202F
:1009500054547840007F28444438003844444428A4
:1009600000384444287F0038545454180000087E4E
:1009700009020018A4A49C78007F080404780000F1
:10098000447D4000002040403D00007F102844008E
:100990000000417F4000007C04780478007C08045B
:1009A000047800384444443800FC18242418001803
:1009B000242418FC007C08040408004854545424DF
:1009C0000004043F4424003C4040207C001C2040A4
:1009D000201C003C4030403C004428102844004C7F
:1009E0009090907C004464544C44000008364100D0
:1009F00000000077000000004136080000020102FC
:100A00000402003C2623263C0000000000000040B9
:100A10004040F0F8F8FF38FFF8F83FF8F8FF38FFEB
:100A2000F8F8F040404000000000000080C0C0C066
:100A3000800000C0C08000000080C0C000C0C000B6
:100A40000080C0C00000000000C0C0C0C0C000C026
:100A5000C0000000000000000000000000000000D6
:100A60000000000000000000000000000000000086
:100A70000000000000000000000000000000000076
:100A80000000000000000000C0F0F8FC3E1E06015F
:100A90000000007F4141417F007F4141417F0000D4
:100AA00080C0E07E5B4F5BFEC00000C000DCD7DE94
:100AB000DEDED7DC00C00000000000000000000007
:100AC00000000000000000000000000000000049DD
:100AD0004949FFFFFFFFE0DFBFBF00BFBFDFE0FF0F
:100AE000FFFFFF49494900000000001F3F6060E030
:100AF000BF1F007F7F071E381E077F7F007F7F0E8E
:100B00001F3B716000000000007F7F0C0C0C007E1A
:100B10007E007F7E0303007F7E03037E7E03037FD0
:100B20007E000F3E703C063C703E0F00327B494910
:100B30003F7E007F7E0303001E3F69696F26000031
:100B40000000000000000000030F1F3F3C787060B1
:100B50000000007F4141417F007F4141417F0030E3
:100B60007B7F7830202030787F3B0003000F7F0FA1
:100B70000F0F7F0F000300000000000000000000C6
:100B80000000000000000000000000000000000164
:100B90000101070F0F7F0F7F0F0F7E0F0F7F0F7F5A
:100BA0000F0F07010101000000000000000000001D
:100BB0000101000000000000000000000000000033
:100BC0000000000000000000000000000000000025
:100BD0000000000000000000000000000000000015
:100BE0000000000000000000000000000000000005
:100BF00000000000000000000000000000000000F5
:100C000000000000000000000000000000000000E4
:100C100000000000000000000000000000000000D4
:100C200000000000000000000000000000000000C4
:100C300000000000000000000000000000000000B4
:100C400000000000000000000000AF00AE556E6420
:100C5000656600537769740A004E756D700A00412D
:100C6000646A0A004C6F77657200526169736500AF
:100C7000426173650A004C41594552000A0A005509
:100C80006E64656600436D6B444800436C6D6B0099
:100C900051777274000044616E650A4576616E7327
:100CA000000A0A00808182838485868788898A8BEE
:100CB0008C8D8E8F9091929394A0A1A2A3A4A5A6AF
:100CC000A7A8A9AAABACADAEAFB0B1B2B3B4C0C126
:100CD000C2C3C4C5C6C7C8C9CACBCCCDCECFD0D17C
:100CE000D2D3D40005010902A10185020901A100A6
:100CF00005091901290815002501950875018102CA
:100D00000501093009311581257F95027508810695
:100D100009381581257F950175088106050C0A386B
:100D2000021581257F950175088106C0C00501095E
:100D300080A101850319012AB700150126B7009586
:100D40000175108100C0050C0901A101850419017C
:100D50002AA002150126A002950175108100C00588
:100D6000010906A1018506050719E029E7150025F7
:100D7000019508750181020507190029EF15002565
:100D80000195F07501810205081901290595057580
:100D9000019102950175039101C005010906A101A8
:100DA000050719E029E7150025019508750181025D
:100DB0009501750881010507190029FF150026FF17
:100DC00000950675088100050819012905150025FB
:100DD00001950575019102950175039101C0090204
:100DE0003B00020100A0FA09040000010301010018
:100DF00009211101000122440007058103080001B7
:100E00000904010001030000000921110100012271
:100E1000B600070582032000011201000200000055
:100E20000832FC87020100010200010C0353006F2D
:100E30000066006C00650000001A034A006F007332
:100E400000650066004100640061006D0063006998
:100E5000006B000000040309040011241FBECFEF43
:100E6000DAE0DEBFCDBF11E0A0E0B1E0EEE7F4E6EE
:100E700002C005900D92AE3BB107D9F726E0AEEB6C
:100E8000B1E001C01D92A335B207E1F70E944728E7
:100E90000C94DA310C940000482F20914506909173
:100EA0000C0657E0291302C080E0089530E0529FFD
:100EB000F001539FF00D1124E35FF94F8181681316
:100EC00006C08081481303C085818111EECF2F5F5A
:100ED0003F4F2770E7CFE8EDF0E080818E7F808381
:100EE0001092E2001092DA001092E100A0EEB0E061
:100EF0008C9181608C9380818F77808319BCA7ED62
:100F0000B0E08C918E7F8C9380818F7E8083109255
:100F1000F50508952091E4003091E50095E6A901DA
:100F20002091EC00822F817020FF06C08091E800A4
:100F300080FF06C080E008952091E80022FD1AC0DD
:100F400080910206882389F0853089F08091EB003A
:100F500085FD0FC02091E4003091E5004217530752
:100F6000F9F29150E1F684E0089582E0089583E07B
:100F7000089581E008958091040687FF13C0809151
:100F8000E80082FF06C08091E8008B778093E8003C
:100F900004C0809102068111F2CF0895809102066B
:100FA0008823D9F38091E80080FFF8CF8091E80092
:100FB0008E77ECCF982F9093E900242F762F50E076
:100FC000891731F07091EC002091ED005091F00004
:100FD00021FD07C09F5F973071F78093E90081E0A2
:100FE00008953091EB003E7F3093EB003091ED009F
:100FF0003D7F3093ED003091EB0031603093EB009A
:101000007093EC002093ED005093F0002091EE00DF
:1010100027FDE0CF80E00895B0E0A0E0E2E1F8E055
:101020000C94CD30C8EDD0E088818F7E8883E7EDC9
:10103000F0E080818160808384E082BF81E08093E2
:10104000F50588818E7F888302EE10E0F80110821A
:101050001092DA0081EEC82ED12CF6011082888120
:101060008F77888388818068888388818F7D888353
:1010700019BC1092020610920306109201061092FB
:10108000000690EEE92EF12CF70180818B7F8083A2
:1010900088818160888342E060E080E00E94DA0716
:1010A000F60180818E7F8083F8018081816080835A
:1010B000808188608083F70180818E7F8083888132
:1010C00080618883CDB7DEB7E8E00C94E930FC019D
:1010D00080910A0690910B0686179707A0F061157C
:1010E000710529F49091E8009E779093E80090E0D4
:1010F0006115710551F4911108C08091E80082FFDB
:1011000034C080E00895BC01F2CF809102068823AC
:10111000C1F18530C1F18091E80083FD30C080913C
:10112000E80082FDEACF8091E80080FFE1CF809166
:10113000F3002091F200382F6115710519F0283065
:10114000310558F091E02830310509F090E0209108
:10115000E8002E772093E800CBCF81918093F100B7
:10116000615071092F5F3F4FE7CF809102068823BE
:1011700041F0853041F08091E80083FFBECF81E0EF
:10118000089582E0089583E008958091F705089519
:1011900087E797E7909301088093000888E19AE039
:1011A0000FB6F894A895809360000FBE90936000EE
:1011B000FFCF2FB7F8946091F1057091F2058091FF
:1011C000F3059091F4052FBF089590915A0199234A
:1011D000D1F09091EE0597FF16C0E82FE695E695C1
:1011E000E695EE31E0F4F0E0E853FE4F282F27704B
:1011F00081E090E001C0880F2A95EAF780959281FE
:10120000892382830895E2ECF1E09191891303C070
:10121000DF0111971C9291E0E83CF907B1F70895BE
:1012200090915A019923C1F09091EE0597FF14C057
:10123000E82FE695E695E695EE31F8F4F0E0E85310
:10124000FE4F877021E030E001C0220F8A95EAF757
:101250008281822B82830895A2ECB1E0EFEF90E0CF
:101260002D91821751F0EF3F19F4211101C0E92FA0
:101270009F5F9630A9F7EF3F09F408950E2E000CFA
:10128000FF0BE054FE4FE6CFA3E0B0E0EAE4F9E064
:101290000C94D3302091EC053091ED0528173907D7
:1012A000A1F09093ED058093EC05E091EA05F091B3
:1012B000EB05309751F024E029839B838A830084D7
:1012C000F185E02DCE01019609952396E2E00C947C
:1012D000EF30A3E0B0E0EFE6F9E00C94D3302091DA
:1012E000E8053091E90528173907A1F09093E90541
:1012F0008093E805E091EA05F091EB05309751F015
:1013000023E029839B838A830084F185E02DCE012D
:10131000019609952396E2E00C94EF308091E60562
:10132000882359F0E091EA05F091EB05309729F018
:101330000190F081E02D0995089580E00895809155
:10134000DB0580FD16C081FD16C082FD16C08091B0
:10135000DA058823A1F0883280F428E0829FC0015A
:10136000112468E270E00E940631862F672B39F065
:10137000089582E0089584E0089588E0089581E06A
:1013800008958091DB0580FD14C081FD14C082FDAD
:1013900016C08091D905882381F08E3180F420E534
:1013A000829FC00111246EE170E00E940631862FF9
:1013B000089584E1089588E2089588E0089580E51D
:1013C0000895282F35EB2303C001112497FF04C093
:1013D00080589109892F089580589F4FFBCFFC01B9
:1013E000680F791F8FEF91E32191822728E030E089
:1013F00087FF09C0880F892721503109C9F7E617EF
:10140000F70791F70895880FF7CF539A089590E062
:101410006623A1F0875A9E4FFC0120812F3F89F05F
:10142000E22FE295EF70F0E080A190E02F7002C013
:10143000959587952A95E2F781700895885A9E4F71
:10144000EBCF80E0089590E06623E9F0875A9E4F45
:10145000FC0180818F3FB1F0E82FE295EF70F0E062
:1014600041A18F7021E030E0B90102C0660F771F03
:101470008A95E2F7CB01962F9095942391A392A1A0
:10148000892B82A30895885A9E4FE2CF9091D3056D
:10149000E92FF0E04091D4059F012F5F3F4F23706B
:1014A000332742171306A9F0EB52FA4F282F2F7754
:1014B00080818078822B60FB87F980839F5F9370A7
:1014C0009093D3058091D1058F5F8093D10581E002
:1014D000089580E00895FA01811101C0FB0109958A
:1014E00008950895E6E9F3E01182828184608283A1
:1014F000089521E030E0A90102C0440F551F8A95EC
:10150000E2F7CA0120919903662361F0822B809350
:1015100099038091980380618093980381E0809380
:10152000BB02089580958223F2CF80914906982FBF
:101530009C7F61F4837084608093490680914C069F
:10154000893718F088E780934C0608958431B0F30A
:1015500083708061F1CFAF92BF92DF92EF92FF92E2
:101560000F931F93CF93DF93082F162FE901E42FDA
:10157000F0E0E75FF94F611110C0E4915E2F4E2F4C
:101580004983E8835A83DF91CF911F910F91FF9098
:10159000EF90DF90BF90AF900895E62EF12C44912C
:1015A000D42EE42FF0E026E0829FC00111242FEF1B
:1015B00030E0B9010E94AF30802F90E0880F991F72
:1015C00055E5569FD001579FB00D11248A1B9B0BE8
:1015D000982F990F890F5901AE18BF08AE9ED00100
:1015E000AF9EB00DBE9EB00D11245B2F189F8001E1
:1015F0001124012F11275901A01AB10AAE9E8001B2
:10160000AF9E100DBE9E100D11245901A81AB108ED
:10161000AE9CC001AF9C900DBE9C900D1124892FF3
:101620009927281B390B2E9FC0012F9F900D3E9F9D
:10163000900D1124E92F62307105A1F050F461156D
:10164000710509F49DCF6130710581F0EB2F512FA9
:1016500097CF6430710569F080F06630710509F448
:101660008FCFF4CFE42F4B2F592F8ACFE42F412F68
:1016700087CFEB2F542F492F83CF4B2F5D2DE12F99
:101680007FCF80E0089581E08093B9020895F894B7
:10169000E82FE295EF70F0E031A1282F2F7081E064
:1016A00090E001C0880F2A95EAF7982F9095932330
:1016B00091A392A1892B82A3789408950F931F93ED
:1016C0008091E605882329F00E94D9081F910F9187
:1016D00008950E94D90800918802109189022091F2
:1016E0008A0230918B02600F711F821F931FEECF11
:1016F0009091EE0592FF10C041E0282F2471243014
:1017000009F040E031E0282F2871283009F030E05E
:10171000431711F02CE0822793FF10C041E0282FDF
:101720002471243109F040E031E0282F287128315C
:1017300009F030E0431711F02CE082273091EF05DB
:1017400030FF10C051E0282F2171213009F050E006
:1017500041E0282F2871283009F040E0541711F09B
:1017600029E0822731FF10C041E0282F217121316B
:1017700009F040E031E0282F2871283109F030E0ED
:10178000431711F029E0822794FD877E089582385F
:101790009105B9F1B0F48133910509F47DC048F4A5
:1017A0008932910509F46DC08A32910509F47BC034
:1017B00008958533910509F45FC08933910509F1D6
:1017C0000895833E9105D9F138F4803E910529F1C1
:1017D000823E910579F10895863E9105D9F1873EC3
:1017E000910509F43EC0843E910541F52091EF0535
:1017F00021FF24C08091EE0584FD19C087EE90E0A2
:1018000008952091EE05237009F05AC02091EF054C
:1018100023FF14C089E290E008952091EE0520FD99
:1018200038C03091EF0530FF09C024FF43C090E07D
:1018300080E008952091EE0522FDF7CF08952091D4
:10184000EE0522FD3AC03091EF0530FD39C024FF8E
:10185000F5CFEDCF2091EE0523FFF0CF24FDE7CFAC
:10186000CDCF2091EE0523FD2EC03091EF0531FF45
:10187000EECF84EE90E008952091EE0525FFDECFB7
:10188000C9CF2091EE0525FD21C02091EF0523FF52
:10189000D5CF89E390E0D2CF2091EE0526FFCECFC1
:1018A0008AE290E008952091EE0526FFC7CF81E3FC
:1018B00090E0089583EE90E0089582EE90E0089520
:1018C00080EE90E0089586EE90E0089585E390E044
:1018D0000895972F7A30B8F46630A8F48830B0F4C1
:1018E00070E026E0929F600D711D1124FB019CE3C6
:1018F000899FE00DF11D1124EE0FFF1FEC5EFD4FDF
:1019000085919591089580E090E0089581E0FCCF65
:101910001F93CF93DF930E94C70BEC01C11580E5A5
:10192000D807F0F5C11580E4D80708F09CC0C03E88
:10193000D10520F5CD3CD10508F082C0C83AD105CB
:1019400078F4C53AD10508F073C0C130D10519F15A
:10195000209709F1C430D105F0F4D0E0C0E01BC0FD
:10196000C33CD105D0F7C85AD0E0CC0FDD1FC25A16
:10197000DE4F0990D881C02DD4640DC0C11580E21E
:10198000D80708F0D1C0C11581E0D80708F05AC0C7
:10199000C83ED10510F7CE01DF91CF911F91089578
:1019A000C03682E5D80718F5C03482E5D80708F0BC
:1019B0006BC0C03282E5D80708F05FC0C11582E570
:1019C000D80708F497C02C2F2695269580E2289FEB
:1019D000900111248C2F8370C1E0D0E002C0CC0FA5
:1019E000DD1F8A95E2F7C22BD32BDD68D4CFC03A36
:1019F00082E5D80760F4C03882E5D80708F459C0FA
:101A0000CF71D0E0DC2FCC27C46FD06AC4CFC03CEC
:101A100082E5D80708F462C0C03E82E5D80708F026
:101A20009CCFDC2FCC27CC27DF71C06FD06AB3CF1F
:101A3000C55AD0E0C55ADE4FC881D0E0D064ABCFE4
:101A4000D065A9CF8D2F0E94780B182FCE01992732
:101A50000E94C70BC12FD0E0DC2FCC27CC27DF7131
:101A6000C82BD92B98CFCE0199270E94C70BCC2722
:101A7000DF70C82BD92BD06A8ECFCF71D0E0DC2F8E
:101A8000CC27C16FD06A87CF2C2F2695269527703B
:101A900080E2289F900111248C2F8370C1E0D0E058
:101AA00002C0CC0FDD1F8A95E2F7C22BD32BDC6876
:101AB00072CF2C2F26952695277080E2289F9001C3
:101AC00011248C2F8370C1E0D0E002C0CC0FDD1F49
:101AD0008A95E2F7C22BD32BDA685DCF8C2F8F71FA
:101AE0000E94780BC82FD0E0DC2FCC27CC27DF71E9
:101AF000D06251CF8C2F8F710E94780B55E0D69514
:101B0000C7955A95E1F7CF70D0E0DC2FCC27282F6E
:101B100030E084FF05C044E0220F331F4A95E1F70F
:101B2000C22BD32BD06937CF8D2F8F710E94780BAA
:101B3000182FCE0199270E94C70BC12FD0E0DC2FB0
:101B4000CC27CC27DF71C82BD92BD2CF8095909191
:101B50003C02982390933C02089580913C0290911E
:101B60001302892B90911202992391F0892B909165
:101B70005A01992371F09091EE0597FF0AC09EE1FA
:101B80002AEC31E040E0915040F4411110921202F1
:101B9000089596E022EC31E0F5CFF90151919F01D3
:101BA000552389F34F5FEFCF8091450690910C0646
:101BB000981301C008958F5F8770FACFB0E0A0E05E
:101BC000E4EEFDE00C94CC307C01009151061091C4
:101BD00052068091A3039091A403082B192BCFE008
:101BE000D0E0CC24C394D12CBC2EC6010C2E02C054
:101BF000880F991F0A94E2F780239123892B49F4D7
:101C0000219790F7B12C8B2DCDB7DEB7E9E00C947E
:101C1000E830B7018C2F0E94690C0E94880C019754
:101C200079F3F1CFCF93DF93EC010E94DE0DBE017B
:101C30000E94690C0E94880CDF91CF9108959A3020
:101C400078F5863068F5E82FF0E086E0989FE00DA3
:101C5000F11D11249E2F977083E0F695E7958A95E4
:101C6000E1F7EE0FFF1FEE0FFF1FE651FE4F50E0B2
:101C700040E080E0219130E0092E02C036952795A2
:101C80000A94E2F721703327042E01C0220F0A9430
:101C9000EAF7822B4F5F5F4F4430510559F70895A3
:101CA00080E008959A3098F5863088F5E82FF0E0C6
:101CB00086E0989FE00DF11D11248E2F877041E082
:101CC00001C0440F8A95EAF783E0F695E7958A9577
:101CD000E1F7EE0FFF1FEE0FFF1FE651FE4F30E062
:101CE00020E070E05191DF011197CB01022E02C07C
:101CF000969587950A94E2F78170819585278423CC
:101D000085278C932F5F3F4F2430310559F7089575
:101D10009093A4038093A3030895FC0124812223BC
:101D2000C1F0808191810E94120E92959F70963031
:101D300091F058F4925F9F70923058F4803F19F000
:101D400030F4883E30F481E008959A5FF4CF843F08
:101D5000D1F380E00895883EB0F3813FD1F7F3CF0F
:101D6000292F332740E02115310511F0C90148E042
:101D70009C0164E0369527956A95E1F721153105B8
:101D800011F04C5FC9019C01369527953695279532
:101D90002115310511F04E5FC90196958795892B64
:101DA00009F04F5F842F0895A6E0B0E0EAEDFEE071
:101DB0000C94D23049835A8349815A819923A1F0E6
:101DC000222391F0CA010E94DE0D182F682F89810D
:101DD0009A810E94520E69817A81812F0E94690C3A
:101DE0002696E3E00C94EE30CA010E941F0E182FD5
:101DF000F2CF1F93CF93DF93EC01009729F0182FB8
:101E0000117060E080FF0BC06091A3037091A40388
:101E10006115710509F45FC06170772711E0617089
:101E200080E00E94790A112309F459C06091A3034C
:101E30007091A4036115710509F451C062FB662716
:101E400060F9617087E00E94790A60E0209739F0BC
:101E5000BE0143E0769567954A95E1F7617081E0B0
:101E60000E94790A60E0209739F0BE0134E076954F
:101E700067953A95E1F7617082E00E94790A60E027
:101E8000209739F0BE0125E0769567952A95E1F710
:101E9000617083E00E94790A60E0209739F0BE010A
:101EA00096E0769567959A95E1F7617084E00E94D7
:101EB000790A60E0209739F0BE01660F672F661F30
:101EC000770B7195617085E00E94790ACE01DF91F0
:101ED000CF911F91089511E061E070E0A0CF60E024
:101EE000B0CF0E94F90E9093520680935106089548
:101EF00080915106909152069C0128713327283118
:101F0000310521F480620E94710F08958F7DFBCF0F
:101F100021E030E002C0220F331F8A95E2F72095BE
:101F200030958091510690915206822393230E940E
:101F3000710F089590911102809589238093110269
:101F4000282F277069F4891759F09091EF0592FFB7
:101F500007C08695869586950E94880F109211027B
:101F6000089521E030E002C0220F331F8A95E2F786
:101F70008091510690915206822B932B0E94710FF3
:101F800008950F931F93CF93DF938B01EA019091F4
:101F90000206943061F58093E9008FEF9091E8009C
:101FA000815095FD06C095ED9A95F1F700008111DD
:101FB000F5CF8091E80085FF1AC00E948A07811141
:101FC00011C08091E80085FD06C08091E8008E7701
:101FD0008093E800F2CFF80181918F018093F100A6
:101FE000219779F78091E8008E778093E800DF9160
:101FF000CF911F910F91089543E050E0BC0182E022
:102000000E94C10F089546E050E0BC0182E00E94AA
:10201000C10F089540E250E0BC0182E00E94C10F70
:102020000895CF93DF93EC0148E050E0BC0181E0DC
:102030000E94C10F88E0FE01A8EFB5E001900D926B
:102040008A95E1F7DF91CF9108954BB1477F5BB15E
:102050005860EFB7F8949B01220F331F260F371FEC
:10206000280F391F2817390741F4EFBF8FE594E097
:102070000197F1F700C000000895DC016D91CD01DA
:1020800078E05BB9000000C067FF4BB9660F000045
:1020900000C000C000C04BB900C07A9591F7E2CFF4
:1020A000B0E0A0E0E6E5F0E10C94CB307C015B0110
:1020B0006A018091870201E010E08A3010F40AE0A2
:1020C00010E0C1E0D0E0B501C701F601099581112A
:1020D00004C021960C171D072CF4CDB7DEB7EAE03B
:1020E0000C94E730CC9F9001CD9F300D300D112422
:1020F00090E080E045E34A95F1F7000001968217F1
:102100009307C1F7E0CF80915A01882359F180915C
:10211000EE0587FF27C00E94AD0D8093C90140E204
:1021200050E064E172E088EC91E00E946C31892B10
:10213000C1F080E2E8ECF1E0A4E1B2E001900D92A0
:102140008A95E1F7E091EA05F091EB05309749F0C7
:1021500086E08093C8010480F581E02D88EC91E051
:10216000099508950E94AD0D8093C00148E050E0AC
:1021700064E372E080EC91E00E946C31892B89F37A
:1021800088E0E0ECF1E0A4E3B2E001900D928A95E2
:10219000E1F7E091EA05F091EB05309711F3028049
:1021A000F381E02D80EC91E0DBCF882321F00E94C9
:1021B000A60D0E9483100895882339F090913C0267
:1021C000982B90933C020E94831008951F93CF9305
:1021D000DF93162F8A3039F481E00E948911DF9154
:1021E000CF911F9108958D3011F480E0F6CFC0910A
:1021F000A003D091A10396E0FE01AAE9B3E001900B
:102200000D929A95E1F7803E90F186E0FE011192E1
:102210008A95E9F7C091A003D091A103111133C0B1
:1022200046E050E0BE018AE993E00E946C319E01D5
:10223000255C3340892B91F52A5F3F4F4091A203E3
:10224000642F70E0C9010E94AF30481B463010F483
:10225000240F311D211572E0370710F030E020E027
:102260002B533C4F3093A1032093A003B8CFF6E04B
:102270008F9FB0011124675F784F46E050E0CE0198
:102280000E945631C7CF9E012A5F3F4FFE012E1795
:102290003F0731F2808180958193F9CFC90145E0F4
:1022A000969587954A95E1F741E050E0BA0102C062
:1022B000660F771F8A95E2F7CB016091C705709191
:1022C000C805862B972BB9016B5F7F4FE5E07695AC
:1022D0006795EA95E1F702C0440F551F6A95E2F74A
:1022E000842B952B9093C8058093C705A5CF1F938A
:1022F000CF93DF93EC01162FFE018491811104C06E
:10230000DF91CF911F910895612F0E94E6102196D1
:10231000F3CFCF93382FE091A003F091A103E55CB8
:10232000F3402091A203622F70E0CF010E94AF30F2
:10233000281B822F332369F066E00E94FA30C82FF1
:10234000C15010F4CF91089560E080E20E94E61041
:10235000F7CF9F01280F311D2115324018F080E082
:10236000F0E0E0E08E0F9F2F911D8B539C4F9093D8
:10237000A1038093A003E6CF0E94771181E00E9421
:1023800089110895A5E0B0E0E8ECF1E10C94C530C6
:1023900050904C019091490690FF17C08090BC026C
:1023A0009090BD028114910411F5652D70E080912B
:1023B0004B0133E0839FC001112482549D4F0E9442
:1023C00025102596E0E10C94E13080914D0120919B
:1023D0004E0133E0839FF0011124E254FD4F821738
:1023E000E8F61182108212828F5F3396F8CF90FF49
:1023F000DCCFD12CC12C66246394712C53E0452E84
:102400008091990393010C2C01C0220F0A94EAF7E2
:10241000822309F43FC0F601EE0FFF1FE80DF91DFE
:10242000E590F590E114F10409F4BFCF45E050E0E8
:10243000B701CE0101960E94563109810F3F51F13B
:102440008A81800F9927991F8734910514F086E4BB
:1024500090E05C01AA0CBB1C8A0D9B1D9C012254C0
:102460003D4F5901049D8001112402541D4F0A154E
:102470001B0520F035E0E30EF11CD8CF4D81493724
:1024800008F048E798016C818B810E94AB0A0D5FD0
:102490001F4FEDCF8FEFC81AD80A28E0C216D1041B
:1024A00009F0AECF82CF9091490690FF0EC0909177
:1024B0004D0120914E0133E0939FF0011124E2542D
:1024C000FD4F921718F00E94C21108958183608316
:1024D00042839F5F3396F5CFA3E0B0E0E2E7F2E1FD
:1024E0000C94D1308C018091490680FF13C040913B
:1024F0004C06493708F048E79E012F5F3F4F609137
:102500004B06F80184810E94AB0A4B8169818A8164
:102510000E945312F80184818F5F84832396E4E044
:102520000C94ED30E9E4F6E080818E7F80830E9498
:10253000720AE6E9F3E08281816082830E94C2111F
:102540000895AB0124E630E0BC0188E70E94632EC9
:1025500021E0892B09F020E0822F08958091CD059C
:102560009091D005911103C091E0892708958823A7
:1025700069F062E070E08BE49CE00E94A11281119E
:1025800003C08091CD0508951092CD058091CD05B1
:10259000EBCFCF93C091CD058091D0058823D1F0AA
:1025A0000E94D908605A75418F4F9F4F6093C905AB
:1025B0007093CA058093CB059093CC05C11108C0D8
:1025C00062E070E089E49CE00E94A112811105C0E4
:1025D000C091CD058C2FCF91089581E08093CD05DA
:1025E000F7CFB0E0A0E0E7EFF2E10C94C930490189
:1025F0005A016B017C010E94950A8401A4016A2D95
:102600007B2D88E090E00E94B83194014A2D5B2D2B
:10261000B601C70100E20E943B31622F83E290E0E5
:102620000E94A631CDB7DEB7ECE00C94E530A3E014
:10263000B0E0EDE1F3E10C94CF30082FF62E142F2B
:10264000E22E8091490680FF44C020914A06201363
:1026500008C090914B06961304C090914C069417B5
:1026600029F090919803926090939803E82FE69553
:10267000E695F0E0EF54FE4F9081909396038C7FA7
:10268000843059F5412F193708F048E79E012F5F34
:102690003F4F6F2D802F0E94AB0A4B8169818A8149
:1026A0000E94531200934A06F0924B0610934C0678
:1026B000EE2079F02091490660914D0670914E060A
:1026C000302F4F2D512F80914F06909150060E9430
:1026D000F1122396E6E00C94EB30923019F7022FBA
:1026E000E1CFE9E4F6E0438121E1421B08F440E058
:1026F00021E0628181810E9417130895E9E4F6E0E8
:10270000438121E1420F08F44FEF21E06281818192
:102710000E9417130895E9E4F6E0628121E1621B4B
:1027200008F460E021E0438181810E94171308953D
:10273000E9E4F6E0628121E1620F08F46FEF21E045
:10274000438181810E9417130895E9E4F6E08181B5
:1027500021E0438162818A500E9417130895E9E4C1
:10276000F6E0818121E043816281865F0E94171338
:10277000089580914D06882319F0815080934D066D
:102780002091490630914A0640914B0650914C06E3
:1027900060914D0670914E0680914F0690915006C3
:1027A0000E94F112089580914D06833018F48F5FD6
:1027B00080934D062091490630914A0640914B0680
:1027C00050914C0660914D0670914E0680914F06D7
:1027D000909150060E94F11208959091EF0592FB9E
:1027E000222720F9281779F080FB92F99093EF05C2
:1027F0006091EE057091EF0584E090E00E94C43195
:1028000082E00E949A0F0895A4E0B0E0EAE0F4E1CB
:102810000C94D23040917F025091800260918102ED
:10282000709182022FB7F8948091F1059091F20592
:10283000A091F305B091F4052FBF841B950BA60B57
:10284000B70B11E084369105A105B10570F10E9426
:102850005E0B6E5F7F4F8F4F9F4F69837A838B83B1
:102860009C838091310190913201855A9D4F409116
:10287000300150E04530510510F044E050E0BE0119
:102880006F5F7F4F0E94793186E090E00E9439307F
:10289000182F882351F00E94D90860937F0270930B
:1028A00080028093810290938202812F2496E3E03C
:1028B0000C94EE304F925F926F927F928F929F9224
:1028C000AF92BF92EF92FF920F931F93CF93DF933C
:1028D0007B01FB0140805180628073809FB7F89438
:1028E0008090F1059090F205A090F305B090F4056A
:1028F0009FBF84189508A608B708F4E68F169104C0
:10290000A104B10418F4C1E0442329F1C82F880FB1
:10291000DD0BFE0183E0EE0FFF1F8A95E1F7E0502B
:10292000FF4F81819281855A9D4F408150E004176D
:10293000150708F4A801B9010E947931CE010E945F
:102940003930C82F882339F00E94D908F7016083F5
:102950007183828393838C2FDF91CF911F910F918D
:10296000FF90EF90BF90AF909F908F907F906F906F
:102970005F904F900895ACE0B0E0E1ECF4E10C948E
:10298000D13088E0E9E4F6E0DE01119601900D9285
:102990008A95E1F78091960390919703A09198030F
:1029A000B091990389879A87AB87BC8741E08B8573
:1029B000811101C040E00CE010E09E012F5F3F4F0D
:1029C00063E872E087E00E945A1481111092980324
:1029D0002C96E4E00C94ED300F931F93CF93DF938C
:1029E000EC0145E050E061E672E00E946C3141E0AC
:1029F000892B09F440E005E010E09E0162E572E0F9
:102A000082E00E945A14DF91CF911F910F91089597
:102A10004F925F927F928F929F92AF92BF92CF928E
:102A2000DF92EF92FF920F931F93CF93DF930F925A
:102A3000CDB7DEB7C62E4A015901482E880F55087A
:102A4000C2010E943930782E882309F480C0C20167
:102A500033E0880F991F3A95E1F7FC01E050FF4FF2
:102A6000438150E04115510511F041E050E08050A4
:102A70009F4FFC0164817581655A7D4FCE0101969F
:102A80000E947931F40140815181628173812FB7B5
:102A9000F8948091F1059091F205A091F305B09121
:102AA000F4052FBF841B950BA60BB70B843691053D
:102AB000A105B10540F4B701C8010E94EF09998151
:102AC000891709F444C00C2C000CDD08C6010E94D3
:102AD0003930782E811113C0712C872D0F90DF9122
:102AE000CF911F910F91FF90EF90DF90CF90BF900B
:102AF000AF909F908F907F905F904F900895C60108
:102B000023E0880F991F2A95E1F7FC01E050FF4F61
:102B1000438150E0E416F50608F4A70180509F4F6A
:102B2000FC0164817581655A7D4FC5010E94793130
:102B3000B701C8010E94EF0999818913CDCF0E9486
:102B4000D908F4016083718382839383C6CFA70180
:102B5000B801C5010E947931C0CFA8E0B0E0E3EB35
:102B6000F5E10C94CF3088E0E82EF12C07E612E076
:102B70009E012F5F3F4F47E552E064E083E00E94F3
:102B80000815082F882389F19091660280915602DA
:102B9000981759F110E090916A02809169028917A3
:102BA000F1F0E92FF0E0E15AFD4F848587FB6627BD
:102BB00060F99F5F937090936A02909168029F5FA3
:102BC000909368028F770E94460A182F8111E3CFF5
:102BD00085E090E00E943930012F082302C01111D6
:102BE000F7CF8091660280935602802F2896E6E008
:102BF0000C94EB30A5E0B0E0E0E0F6E10C94CD30D1
:102C00006B0185E0E82EF12C0CE512E09E012F5FB0
:102C10003F4F4EE452E061E080E00E9408158823B7
:102C200049F095E0FE013196A9E4B2E001900D92E1
:102C30009A95E1F795E0E9E4F2E0D60101900D9272
:102C40009A95E1F72596E8E00C94E9301F920F92EF
:102C50000FB60F9211242F933F934F935F936F936F
:102C60007F938F939F93AF93BF93EF93FF93809145
:102C7000E10082FF09C08091E20082FF05C08091DF
:102C8000E1008B7F8093E1008091DA0080FF24C017
:102C90008091D80080FF20C08091DA008E7F8093E1
:102CA000DA008091D90080FF9DC080E189BD82E17A
:102CB00089BD09B400FEFDCF81E0809302068091BA
:102CC000F505811109C00E946B070E940C088091D4
:102CD000E20084608093E2008091E10080FF17C0F1
:102CE0008091E20080FF13C08091E2008E7F80938C
:102CF000E2008091E20080618093E2008091D80040
:102D000080628093D80019BC85E080930206809190
:102D1000E10084FF2BC08091E20084FF27C080E1A6
:102D200089BD82E189BD89B5982F917080FFFBCF65
:102D30008091D8008F7D8093D8008091E1008F7EB4
:102D40008093E1008091E2008F7E8093E200809189
:102D5000E20081608093E20080910306882309F4F9
:102D600047C084E080930206809102068091E100D2
:102D700083FF27C08091E20083FF23C08091E100A0
:102D8000877F8093E10082E0809302061092030621
:102D90008091E1008E7F8093E1008091E2008E7F40
:102DA0008093E2008091E20080618093E20042E043
:102DB00060E080E00E94DA078091F00088608093F4
:102DC000F000FF91EF91BF91AF919F918F917F9113
:102DD0006F915F914F913F912F910F900FBE0F9088
:102DE0001F90189519BC109202061092F50574CF29
:102DF0008091E30087FD93E090930206B5CF78942D
:102E00001F921FB61F9211248F939F93AF93BF936E
:102E10008091F1059091F205A091F305B091F40530
:102E20000196A11DB11D8093F1059093F205A09329
:102E3000F305B093F405BF91AF919F918F911F90CF
:102E40001FBE1F9018959C014FB7F8948091F10513
:102E50009091F205A091F305B091F4054FBF821B4C
:102E6000930B08952FB7F8948091F1059091F20596
:102E7000A091F305B091F4052FBF08950E94321779
:102E80009C019091E2058091E305982B21F030930D
:102E9000DF052093DE059091E4058091E505982BF0
:102EA00021F03093DD052093DC05E091EA05F091F7
:102EB000EB05309749F082E08093E0050680F781CA
:102EC000E02D80EE95E00995089510923C028091E6
:102ED0005A01882339F18091EE0587FF23C0EAEC7F
:102EE000F1E08EE1DF011D928A95E9F790E080E044
:102EF0000E94690990E080E00E9444091092130248
:102F00000E94831086E0E0EEF5E0DF011D928A95D5
:102F1000E9F71092D9051092DA051092DB050E94AC
:102F20003E170895E2ECF1E086E0DCCFAAE2B0E0E3
:102F3000ECE9F7E10C94D23084E096E02091F100C6
:102F4000FC012193CF01F6E08C309F07B9F7809107
:102F50000506833009F470C0B8F4813009F447C025
:102F6000823009F4B1C08091E80083FF7EC2809175
:102F70000406909105069A3008F077C2E92FF0E038
:102F8000E452FE4C0C941A318A3009F48CC08B3018
:102F900009F46FC0893039F780910406813219F73E
:102FA00080910806909109060297E8F68091E80062
:102FB000877F8093E8008091E80082FF38C090917D
:102FC000F3008091F200029731F48091F10081309A
:102FD00011F0863021F48091F1008093F705809103
:102FE000E8008B778093E8000E94BB07BCCF8091FC
:102FF0000406813A09F0B7CF8091E800877F80937B
:10300000E8008091080690910906892B61F468E038
:1030100088EF95E070E00E9467088091E8008B7768
:103020008093E800A0CF60E090E080E0F3CF809153
:1030300002068111C0CF97CF80910406813A09F032
:1030400092CF8091080690910906892B09F08BCFC9
:103050008091E800877F8093E8008091E80080FFFE
:10306000FCCF80915A018093F1008091E8008E7727
:10307000B9CF80910406813209F075CF809108069E
:1030800090910906892B09F06ECF8091E800877F27
:103090008093E8000E94BB078091060680935A0146
:1030A0000E94651760CF80910406813209F05BCFE2
:1030B0008091E800877F8093E8000E94BB078091A1
:1030C00007068093F6054FCF80910406813A09F0F8
:1030D0004ACF8091E800877F8093E8008091E800E4
:1030E00080FFFCCF8091F605BECF803899F0823802
:1030F00009F0BBC1809108068F70873008F0B5C118
:103100008093E9008091EB0085FB882780F910927D
:10311000E90006C08091000690910106911182603D
:103120009091E800977F9093E8008093F1001092CF
:10313000F1008091E8008E7794C1882309F482C160
:10314000823009F092C180910606811185C180917B
:1031500008068F702FEF280F263008F086C1809365
:10316000E9002091EB0020FF77C1933031F480918A
:10317000EB0080628093EB006FC19091EB00906157
:103180009093EB0021E030E001C0220F8A95EAF72E
:103190002093EA001092EA008091EB008860EACF69
:1031A000811163C1109106061F778091E30080783A
:1031B000812B8093E3008091E800877F8093E80073
:1031C0000E94BB078091E80080FFFCCF8091E30064
:1031D00080688093E30082E0111183E0809302060F
:1031E00044C18058823008F040C180910606909119
:1031F00007068C3D23E09207A1F583E08A838AE2EB
:1032000089834FB7F894DE01139620E03EE051E247
:10321000E32FF0E050935700E49120FF03C0E295C4
:10322000EF703F5FEF708E2F90E0EA30C0F0C796EE
:103230008D939D932F5F243159F74FBF8091E80004
:10324000877F8093E8006AE270E0CE0101960E94D9
:1032500067088091E8008B778093E80006C1C096EC
:10326000E7CF4091080650910906292F33272330D4
:10327000310509F444C078F52130310509F46FC0F7
:103280008BE390E0EEEDFDE02230310509F0EDC07A
:103290002091E800277F2093E80020910A063091D2
:1032A0000B068217930708F49C0140E021153105B5
:1032B00009F064C0411162C08091E80082FDC9CF6D
:1032C00080910206882329F2853019F28091E80066
:1032D00083FFF2CFBECF21323105A9F12232310571
:1032E00009F0C3C04115510509F443C041305105EF
:1032F00009F0BBC086EB90E0E4EEFCE0C9CF992773
:1033000081309105C1F0009759F0029709F0ADC0E6
:10331000EBE2FEE0E4918E2F90E0EBE2FEE007C0EE
:10332000E5E5FEE0E4918E2F90E0E5E5FEE0009714
:1033300009F49BC0ADCFE9E3FEE0E4918E2F90E06D
:10334000E9E3FEE0F4CF4115510571F0413051053C
:1033500009F08BC089E090E0E9E0FEE099CF82E1DE
:1033600090E0E9E1FEE094CF89E090E0E0EFFDE05D
:103370008FCF84E490E0EAE9FDE08ACF80910206F5
:10338000882309F466CF853009F463CF8091E80083
:1033900083FD5FCF8091E80082FD8ECF8091E800B1
:1033A00080FF84CF9091F3008091F20021153105C8
:1033B00019F08830910550F041E0089709F040E09D
:1033C0008091E8008E778093E80070CF449140931D
:1033D000F1003196215031090196E8CF803809F08B
:1033E00044C08091E800877F8093E80080910306C5
:1033F0008093F1009ECE811138C0109106061230E4
:10340000A0F58091E800877F8093E8001093030681
:103410000E94BB07112311F084E005C08091E300F6
:1034200087FDFACF81E08093020642E061EC81E003
:103430000E94DA0742E261EC82E00E94DA078091A2
:10344000020613C080910606813079F481E0933042
:1034500009F080E0809301061092E9008091E80075
:10346000877F8093E8000E94BB078091E80083FF7C
:103470000AC08091E800877F8093E8008091EB008C
:1034800080628093EB00AA96E3E00C94EE301F92EA
:103490000F920FB60F9211242F933F934F935F9388
:1034A0006F937F938F939F93AF93BF93CF93DF934C
:1034B000EF93FF93D091E900DF708091EC00C82F6B
:1034C000C17080FDC0E81092E9008091F000877F14
:1034D0008093F00078940E9496171092E9008091F2
:1034E000F00088608093F000CD2BCF70C093E9008E
:1034F000FF91EF91DF91CF91BF91AF919F918F910C
:103500007F916F915F914F913F912F910F900FBEDF
:103510000F901F9018950E9465172FEF84E39CE091
:10352000215080409040E1F700C0000088E19AE01F
:103530000FB6F894A895809360000FBE909360003A
:10354000FFCF4091E2059091E4052091E5056623C7
:1035500009F469C0942B922B2091E305922B31F052
:1035600098E09093D90591E09093DA058D3C41F471
:103570000E94C10981958093E3050E943E1708953A
:103580008E3C19F40E94C109F6CF8F3C31F40E94A1
:10359000C10981958093E205F0CF803D19F40E9426
:1035A000C109F8CF893D29F40E949F098093E40561
:1035B000E4CF8A3D21F40E949F098195F7CF8B3D8E
:1035C00031F40E949F0981958093E505D6CF8C3D0B
:1035D00019F40E949F09F8CF9FE2980F983070F479
:1035E000815D990B21E030E001C0220F8A95EAF756
:1035F0008091E105822B8093E105BFCF8D3D31F4B1
:103600008091DB0581608093DB05B7CF8E3D21F48F
:103610008091DB058260F7CF8F3D09F0AECF8091BE
:10362000DB058460F0CF8D3C59F48091E30587FF82
:103630000DC01092E30541110BC01092D90508C0CE
:103640008E3C81F48091E30518169CF3442381F0AD
:103650008091E4059091E505892B09F08ECF1092B9
:10366000DA058BCF8F3C49F447FFF0CF1092E2058B
:103670008091E3058111ECCFE0CF803D19F4141661
:10368000ACF3E4CF893D29F4191604F71092E40550
:10369000DDCF8A3D19F497FFD9CFF8CF8B3D29F4C0
:1036A00027FFD4CF1092E505D1CF8C3D19F4121627
:1036B000CCF3CCCF9FE2980F983090F4815D990BBA
:1036C00021E030E0B90102C0660F771F8A95E2F76A
:1036D000CB0180959091E10589238093E105B6CFD8
:1036E0008D3D31F48091DB058E7F8093DB05AECF7D
:1036F0008E3D21F48091DB058D7FF7CF8F3D09F062
:10370000A5CF8091DB058B7FF0CF882381F19CEFE3
:10371000980F913A28F40E94E5080E9483100895BA
:1037200090E2980F983050F4877091E001C0990FA3
:103730008A95EAF7892F0E94A60DEFCF9BE5980F97
:10374000933028F490E080E00E946909089598E59C
:10375000980F9B3128F490E080E00E94440908957E
:1037600093E3980F933118F460E00E94A11A089532
:10377000CF93C82F8823B1F18CEF8C0F813AA0F53D
:1037800080915A01882301F18091EE0587FF1CC0CA
:10379000EC2FE695E695E695F0E0E853FE4F828142
:1037A00090E04C2F477021E030E002C0220F331F21
:1037B0004A95E2F782239323892B79F08C2F0E947C
:1037C000E5080E94831009C0E2ECF1E08191C8177E
:1037D000A9F381E0E83CF807C9F78C2F0E94100993
:1037E0000E948310CF91089580E28C0F883068F496
:1037F000C77021E030E001C0220FCA95EAF780913E
:103800003C02822B80933C02EBCFEBE5EC0FE330E4
:1038100040F4F0E0E55AFE4F808190E00E94690993
:10382000E1CFE8E5EC0FEB3150F4F0E0EE0FFF1FD5
:10383000E25AFE4F808191810E944409D3CF83E3F5
:103840008C0F833178F661E08C2F0E94A11ACACFC9
:103850001F93CF93DF93182FCAE0D0E0893311F480
:10386000C0E5D0E0812F0E94B81B8FE99FE001974F
:10387000F1F700C000002197C1F7812F0E94851B3E
:10388000DF91CF911F9108950F931F93CF93DF93F3
:10389000C62FD42F022FFC0185818823A9F06093C5
:1038A00048060E9432179093470680934606C770D9
:1038B00081E001C0880FCA95EAF70E94DC10DF9111
:1038C000CF911F910F91089580914806681332C0DF
:1038D00080914606909147060E942317883C9105E7
:1038E00048F510E21D0FCD17B9F080E28C0F88303B
:1038F00040F4C77081E001C0880FCA95EAF70E94C2
:10390000D510183048F481E09D2F977001C0880FC2
:103910009A95EAF70E94DC10802F0E94281C18302C
:1039200070F6D77081E001C0880FDA95EAF70E943F
:10393000D510C5CFC77081E001C0880FCA95EAF7DE
:10394000F6CFCF9380E09091D4052091D30529172D
:1039500009F445C0E92FF0E0EB52FA4F808187FB74
:10396000CC27C0F98F779F5F93709093D405909187
:10397000D2059F5F9093D205882389F08130B9F4F6
:1039800080915106909152060E94B00E8330B0F0A3
:103990008530E0F481E5C1111CC082E513C0CC2361
:1039A00041F089EA0E94281C89EA0E94281C81E0D3
:1039B000CACF8AEA0E94281C8AEAF7CF8EE4C11196
:1039C00008C08BE40E94281C8BE4EFCFCC2329F0A5
:1039D0008AED0E94281C8EE4E8CF89EDF3CFCF91C9
:1039E00008952F923F925F926F927F928F929F9253
:1039F000AF92BF92CF92DF92EF92FF920F931F93FD
:103A0000CF93DF938091D005882309F497C08091EC
:103A1000CE059091CF050E942317C29708F46FC07E
:103A20000E9432179093CF058093CE0585EC93E0EA
:103A30009093A1038093A0038091E60560E0882322
:103A400009F48EC081EA9CE00E94771160E086E96B
:103A50009CE00E94BC1160E085E99CE00E94BC11E2
:103A60008091A3039091A4030E94B00E813031F1A4
:103A7000882331F0823031F160E08FE79CE003C0B1
:103A800060E080E99CE00E94BC1160E08CE79CE073
:103A90000E94771160E086E79CE00E94BC11809153
:103AA0005106909152060E94B00E883018F5E82F0A
:103AB000F0E0EA51FE4C60E00C941A3160E08BE8D3
:103AC0009CE0E1CF60E085E89CE0DDCF80E79CE012
:103AD0000E94771114C08AE69CE0FACF84E69CE04D
:103AE000F7CF8FE59CE0F4CF89E59CE0F1CF83E54B
:103AF0009CE0EECF60E08DE49CE00E94BC118091E0
:103B0000C7059091C805892B71F58091CD05882353
:103B1000A9F00E94D9080091C9051091CA05209109
:103B2000CB053091CC05601B710B820B930B6F3F63
:103B30007F4F8F4F9F4710F40E94AE12DF91CF91BD
:103B40001F910F91FF90EF90DF90CF90BF90AF90BB
:103B50009F908F907F906F905F903F902F900895EF
:103B600084EA9CE0B5CF8091D005882371F28091E2
:103B7000C6058111CACF0E94C9122091C705309194
:103B8000C8052115310509F280E041E050E0082F19
:103B900010E01A01082E02C0220C331C0A94E2F72E
:103BA000B10162237323672B11F48F5FF0CF9091E3
:103BB000C50590FF95C0880F880F880F809353012B
:103BC00010925601895F8093540183E080935701DE
:103BD00024E630E047E050E061E571E088E70E94CC
:103BE0001F2E892B09F091CFA80125E0440F551F06
:103BF0002A95E1F78091C50580FF84C0E5EAF3E0EE
:103C000080E2DF011D928A95E9F7AAEBB1E006EBAD
:103C100011E08EEBC82E81E0D82E97E0592E772444
:103C200073948D91E80129918E01240F352F311D58
:103C30002B533C4FE82FF0E0EB55FC4F90E080E039
:103C4000652C681A872C082E01C0880C0A94EAF7A4
:103C50007901A12CE701B9907E01B820662D6A197F
:103C60006770962E062E000C770BDB2D01C0DD0F42
:103C70009A94EAF77195619571096770772701C089
:103C8000B6946A95EAF7BD2A6081962E9B289082A9
:103C9000A39468E0A612DECF019631968830910594
:103CA00079F6CA16DB0609F0BCCF04E610E020E284
:103CB00030E045EA53E060E488E70E94A92E892BB2
:103CC00009F023CFE101C095D0958091C70590916F
:103CD000C805C823D923D093C805C093C70515CFFD
:103CE0008295880F807680935301980136952795A9
:103CF0003695279520935601815E80935401209339
:103D0000570166CF4B535C4F04E610E020E230E0F1
:103D1000D2CF8091E605882319F00E9432170895CA
:103D20000E945E0BCB0108956091490666956695E9
:103D300070E041E050E080E591E00E945F31892B26
:103D400019F481E0809397030E94891E9093910358
:103D500080939003809198038460809398030895E2
:103D60009091490690FF3AC09370811138C09460D9
:103D7000909349068091980381608093980366230D
:103D800091F02091490630914A0640914B0650919E
:103D90004C0660914D0670914E0680914F069091B1
:103DA00050060E94F112609149066695669570E092
:103DB00041E050E080E591E00E945F31892BB9F04D
:103DC0000E94720A81E08093930320E040914C06A8
:103DD00060914B0680914A060E9417130895853022
:103DE00010F09061C5CF880F880F982BC1CF0E942B
:103DF000941EE8CF8091490686958695815009F4F6
:103E000084E061E00E94B01E089580914906869585
:103E100086958F5F853008F081E061E00E94B01EDA
:103E200008958091490680FF09C086958695825C39
:103E30008F73823018F40E94051F089561E082E0BC
:103E40000E94B01E0895B0E0A0E0E9E2FFE10C940A
:103E5000CB308C01FC018481882381F121E04081F9
:103E600051816281738195810E94D40EEC01F80129
:103E7000F580FC01E054FE47E730F10508F07BC017
:103E8000E251FE4C0C941A31FF2049F061E083E0CE
:103E900090E00E94A63181E090E00E94880E80911F
:103EA0001102877059F0F8018581882339F08091DB
:103EB000EF0582FF03C082E00E949A0FCDB7DEB704
:103EC000EAE00C94E730FF2051F362E083E090E0F9
:103ED0000E94A63182E090E0E0CFFF2001F364E091
:103EE00083E090E00E94A63184E090E0D6CF83E0AA
:103EF000FF2039F00E94B10F0E94780FD0CF84E0EC
:103F0000F7CF0E94880FF8CF85E0FF2019F00E94BC
:103F1000B10FC5CF0E94880FC2CF87E00E94780BF7
:103F2000FF2019F10E94DC1082E50E94B81BF80105
:103F30008581882309F417C410924806CE01905752
:103F4000839708F0FCC384E090E00E949031909346
:103F5000EF058093EE05FE01E150F047E232F105F6
:103F600090F5EB50FE4C0C941A310E94D51082E56E
:103F70000E94851BDCCFFC01E851FC47E730F105CE
:103F8000B0F6E95EFD4C0C941A3126E241EE61EE8A
:103F9000C8010E94441C83CF27E245EE65EEF8CFAE
:103FA00026E241EE60EEF4CF27E245EE64EEF0CF7C
:103FB00026E241EE62EEECCF27E245EE66EEE8CF78
:103FC00028E241E0EBCF8091EE0581608093EE0521
:103FD00095C08091EF0588608093EF058FC0809138
:103FE000EE058260F3CF8091EE058460EFCF809183
:103FF000EE058860EBCF8091EF058160EDCF809179
:10400000EF058260E9CF8091EE058061DFCF80917E
:10401000EE058062DBCF8091EE058064D7CF0E94F1
:1040200065178091EE058068D1CF8091EE058C6098
:10403000CDCF8091EF058360CFCF8091EE058E7F4D
:10404000C5CF8091EF05877FC7CF8091EE058D7F2B
:10405000BDCF8091EE058B7FB9CF8091EE05877F34
:10406000B5CF8091EF058E7FB7CF8091EF058D7F23
:10407000B3CF8091EE058F7EA9CF8091EE058F7D25
:10408000A5CF8091EE058F7BA1CF0E94651780910F
:10409000EE058F779BCF8091EE05837F97CF809140
:1040A000EF058C7F99CF8091EE0582FB992790F9DF
:1040B00021E0922790FB82F990FB83F987CF8091D2
:1040C000EF05982F909591708E7F892B90FB81F949
:1040D00083CF9091EE05892F8F7B96FF806476CFFA
:1040E0000E9465179091EE05892F97FB87F98058FC
:1040F0006DCF61E08EE090E00E94A6316091EE0508
:104100007091EF0584E090E00E94C4310E94651731
:10411000C6CE60E0EFCF9091EE05892F8F7E94FFA1
:10412000806154CF9091EE05892F8E7F90FF816042
:104130004DCF9091EF05892F877F93FF88604CCFFB
:1041400085E30CC38091E801811104C089E20E94DB
:10415000E50806C385E3FBCF8091490680FF1EC0BA
:10416000282F2E7F2093490630914A0640914B0616
:1041700050914C0660914D0670914E0680914F060D
:10418000909150060E94F1120E94720A8091980349
:104190008160809398030E94C21181CE81608093D8
:1041A000490661E0869586950E94B01E78CE4AEF5A
:1041B0005EE165E07FE10E946B0A71CE45E05FE160
:1041C0006AEF7EE1F8CF45EA53E16FEA73E1F3CF9E
:1041D0004FEA53E165EA73E1EECF4BE853E168E95A
:1041E00073E1E9CF48E953E16BE873E1E4CF41E7DC
:1041F00053E16EE773E1DFCF4EE753E161E773E12F
:10420000DACF49EB53E163ED73E1D5CF43ED53E1F1
:1042100069EB73E1D0CF61E081E0C6CF0E94111F4E
:104220003ECE0E946517FFEF24E33CE0F1502040B2
:104230003040E1F700C000000E94C8086FEF7FEF38
:1042400090E080E00E94C4310E948B1A8091EF05BB
:1042500082FB882780F991E089270E94ED13F801FD
:104260008581C081D181882309F44DC0CE010E948F
:10427000DE0DF82E682FCE010E94520EBE018F2D4A
:104280000E94690C0E94880CD82FC92FA82EF80113
:10429000C580B680B2943FE0B3228091110287704E
:1042A00009F1EC2CCC20F9F0892F807F803469F063
:1042B00080E28D0F8830B0F0892F807E803229F423
:1042C000F1E0FD1778F4BB2069F08091EF0582FFE3
:1042D00009C082E00E949A0F809111028770EE243B
:1042E000E3948111E12CDC2ED2942FE0D2222BE03A
:1042F0002D1508F46DC0ED2DF0E0E25EFD4C0C9440
:104300001A3180E0AACFCE010E941F0EF82EB6CF40
:104310003C2F3F70F32EC07F19F0F29490EFF922FA
:10432000CC20B9F0FF2069F080E28D0F883010F0CA
:10433000A11009C080913C02F82AF0923C020E9430
:1043400083108D2F43C080911302F82AF09213023C
:10435000F6CF8D2F0E94851BFF20D1F1D05ED83083
:1043600010F0A11004C08F2D0E94A60D06C0F0947D
:1043700080911302F822F09213020E94831028C049
:104380008C2F8F70F82EC07FC03219F0F29480EF1E
:10439000F822AA2059F091E0A91609F479C0CC209E
:1043A00009F485C0BB2009F447C0CBCF8091EF054D
:1043B00082FD3EC0CC20B1F1FF2039F080913C025B
:1043C000F82AF0923C020E94831080E00E94B81B01
:1043D0002D2D2850330B2430310510F40E948E0906
:1043E000EE20A9F08091110280FD11C0F801158224
:1043F0008695869586950E94B10FC8010E94231F5D
:10440000809111028695869586950E94880F20E0FE
:10441000F8014081518162817381848195810E947C
:10442000D40E4CCD80E00E94851BFF2089F29BCFEB
:10443000CC20A1F0B11004C08F2D0E94DC10C8CF99
:10444000E1E0BE12C5CF809112029F2D9823F9168C
:1044500009F4BECFF82AF0921202BACFB110B8CF49
:104460008F2D0E94D510909112028F2D892329F053
:104470008F2D80958923809312028091E9019F2DD1
:10448000982309F4A5CFF094F822F092E901A0CF87
:10449000CC2029F0F5E0FB1508F49ACFCDCF24E02D
:1044A0002B1508F495CF8F2D0E94D51091CFBB20EE
:1044B000D1F339E3A3120DC08FEF97EEE3E0815003
:1044C0009040E040E1F700C000008D2F0E94851B66
:1044D0007FCF8FE39CE90197F1F7F5CF8C2F86957D
:1044E0008695837069F0813009F072CF8D2F9C2FF3
:1044F0009370C11002C080E090E00E94440968CF30
:104500008D2F9C2F9370C11002C080E090E00E941C
:1045100069095ECF6C2D8D2F0E94A11A59CF8C2F67
:10452000837009F03FC0C11053CF4D2F429546957F
:104530004770440F440F2D2F2F7030E0042E02C01F
:10454000220F331F0A94E2F790E080E0D4FF09C005
:104550008FE090E002C0880F991F4A95E2F780959E
:104560009095C695C695C370C23099F078F4409185
:10457000A3035091A403C13039F0822B932B8423E1
:1045800095230E94880E24CF242B352B822B932B2E
:10459000F8CF822B932B2091A3033091A403822781
:1045A0009327EFCF8695CC2011F08C2F8170882334
:1045B00009F40ECF4D2F429546954770440F440F96
:1045C0002D2F2F7030E0042E02C0220F331F0A94CB
:1045D000E2F790E080E0D4FF09C08FE090E002C0F5
:1045E000880F991F4A95E2F780959095C695C695D4
:1045F000C370C23099F078F4409151065091520640
:10460000C13039F0822B932B842395230E94710FA4
:10461000DFCE242B352B822B932BF8CF822B932BA1
:10462000209151063091520682279327EFCFCF7009
:10463000CC2029F08C2F0E94B10F8D2FFECE8D2F14
:104640000E94D5108C2F0E94880FC2CE8D2F92EF22
:10465000A91699F19A1570F0E0EFAE16D1F0F1EFCE
:10466000AF1691F0CC2009F456C0B1106ACE8C2F51
:104670008F7127C023EFA21639F134EFA312F2CFC6
:104680009091EF0592FD2EC08C2F8F71CC20D9F226
:1046900018C0CC2069F084E08B1508F499CECF7156
:1046A00081E090E002C0880F991FCA95E2F7B8CF69
:1046B00095E09B1508F48CCEF2CF8C2F8F71C11032
:1046C000C2CF0E94B10F84CE90E080E0CC2009F4EC
:1046D0009DCFCF7181E090E002C0880F991FCA95ED
:1046E000E2F794CFCC2061F08C2F8F7192FFE9CF4D
:1046F000E8E08E9F90011124236020931102E1CF06
:1047000081E00E949A0FF1E0FB1508F061CE82E093
:104710000E949A0F5DCEBB2079F0893341F42FEFD0
:1047200037EE83E0215030408040E1F7CCCEEFE31C
:10473000FCE93197F1F7C7CE8C2F8F7184CFC6314A
:10474000FCE7DF0719F580913C028A7A91E009F4D1
:1047500090E09093E8018111F3CC89E20E94100966
:104760000E9483109CCBC6312CE7D20709F4EACC17
:1047700080913C028272FE01E052F847E531F1057A
:1047800008F06DCDE65DFD4C0C941A31C3303CE76A
:10479000D30709F453CD50F4C1159CE7D90709F4A8
:1047A00040CDC130DC4709F44FCD59CDCB35FCE7C6
:1047B000DF0709F4A6CDCC352CE7D20709F446CDA6
:1047C000CA35DC4709F04BCD81E047CDCF93DF936D
:1047D00080911002807F09F04DC080910F028823E4
:1047E00009F448C0E091450650910C06C0910B02B7
:1047F000D0910A0260910C0270910D0247E05E17A1
:10480000C9F18E2F90E0E49FF0011124E35FF94F8E
:104810002481222391F1489FF001499FF00D11243A
:10482000DF01A35FB94F11962C9111972C1325C06E
:104830002C912D1322C015962C91159721111DC076
:1048400012962D913C91261B370B283C3105A8F47C
:10485000809110028F70806180931002ED5EF94F9D
:1048600080818F70806180838AE092E00E94231FA4
:104870000E94D40DDF91CF910895FC013196E7702D
:10488000BECFA4E1B0E0E7E4F4E20C94C9308C01BF
:1048900086E0F801DE011F9601900D928A95E1F7FE
:1048A000F8018481E5809AE0A92E92E0B92E9091DA
:1048B0000E02911128C0882319F1EE20F1F0C801F1
:1048C0000E948D0EF82E8823C1F087E0F801D501F3
:1048D00001900D928A95E1F780910E02813031F4BA
:1048E00080910A0290910B020E94120E0E94E62310
:1048F0008F2D6496ECE00C94E530C8010E94231FD4
:10490000FF24F394F5CFD080C18082809380F09013
:104910000F0220910C0230910D02A401421B530B97
:10492000FF2009F4E5C0483C510508F09EC08823EB
:10493000F9F290910B0280911002282F207F09F04C
:1049400056C0C91214C090910A02D91210C0E110C9
:1049500048C08F708061809310028AE092E00E94CC
:10496000231F80911002F8018683F12CC1CFE11042
:1049700038C06C2D8D2D0E944C076C2D8D2D0E9402
:104980004C07E82E8111F1CFDF86C88A8F85988980
:104990000E94120E292F22952F70243058F49F70F8
:1049A000223088F0992399F0F8019681907F79F46C
:1049B000FE2C9ECF2A5F2F70223068F0C8010E9423
:1049C000231FEF2CF5CF992311F0882389F3805E04
:1049D000883070F3F3CF803F58F3815F833070F7F6
:1049E000E7CF80911002816080931002BECFC91280
:1049F00013C090910A02D9120FC0E1100DC0868336
:104A0000C8010E94231F87E0F801AAE0B2E00190EC
:104A10000D928A95E1F76CCFC8010E948D0E882314
:104A200009F46BCFEE2009F468CF80911002803238
:104A300088F020910A0230910B02398728879B86E3
:104A40008A8690910E029C871D868E87CE010896DD
:104A50000E94231F87E0F801AAE0B2E001900D92C6
:104A60008A95E1F70E94E6234BCF90911002292FFF
:104A7000207F51F48AE092E00E94231F87E0F50135
:104A800011928A95E9F771CF882309F431CF80918B
:104A90000B028C1110C080910A02D8120CC0E110D8
:104AA0000AC09683C8010E94231F87E0F501119276
:104AB0008A95E9F71DCFC8010E948D0E882309F45D
:104AC0001CCFEE2009F419CF80911002803210F231
:104AD00020910A0230910B023A8329839C828B82B7
:104AE00090910E029D831E828F83CE010196B0CFDE
:104AF000483C5105D0F6882309F402CFFE2CEE2065
:104B000009F4FBCE80910B028C1105C080910A0242
:104B1000D81609F478CFC8010E948D0E81119ACF62
:104B200080911002816080931002C8010E94231FAF
:104B3000DFCEABE1B0E0EFE9F5E20C94D1304E8B83
:104B40005F8B688F798F8A8F9B8F192F91111092AD
:104B500013021D8A86E0FE017696DE011F96019003
:104B60000D928A95E1F70A8D002341F021E04F85EF
:104B7000588969897A89C8010E94D40E0B8B1C8BD5
:104B800087E0FE013F96DE01189601900D928A950E
:104B9000E1F7CE0108960E94412481112AC087E0E6
:104BA000FE013896DE01119601900D928A95E1F78B
:104BB0008C858823F1F020910C0630E0C901019624
:104BC000877099274091450648171906E9F097E044
:104BD000929FD001939FB00D1124A35FB94FFE01A6
:104BE000319601900D929A95E1F780930C060E9400
:104BF000D40D17E08091450690910C06891312C0E0
:104C00006B96E4E00C94ED300E94651710920C0650
:104C10001092450687E0EAE0F2E0DF011D928A95F6
:104C2000E9F7E7CF819FC0011124835F994F0E946C
:104C30004124882329F38091450690E001968770EE
:104C4000992780934506D6CFA6E1B0E0EAE2F6E2E6
:104C50000C94C8308E01035F1F4F8AE0F801119257
:104C60008A95E9F786E9C82E81E0D82EF12CE12C4F
:104C7000AA24A394B12C21EA822E21E0922EF601DF
:104C800081916F018F3F09F442C0F894E82FE295BB
:104C9000EF70F0E021A18F70A50102C0440F551FF5
:104CA0008A95E2F7CA01922F982B91A392A1809541
:104CB000892382A3789400C0EBE9F1E0712C31E004
:104CC00021912F3F09F4A5C0A22FA295AF70B0E0AB
:104CD00090968C9190E02F7002C0959587952A95BB
:104CE000E2F780FD96C0832F782A330F8E169F0639
:104CF00039F7F601319780818F3F11F00E94470B01
:104D000050EA5A95F1F7F801EE0DFF1D70828FEF12
:104D1000E81AF80A95E0E916F10409F0B0CF4AE084
:104D200050E0B8018CE892E00E946C31009741F0AD
:104D30002AE0F801ACE8B2E001900D922A95E1F783
:104D40000091970210E005561D4F892B09F463C0AE
:104D500081E0809341020E94321790934002809339
:104D60003F02D12CC090E605FE0131967F01CC2098
:104D700009F4A7C085E011928A95E9F7809187022E
:104D80008A3008F06CC04AEF55E1B701C8010E94B3
:104D90005010882309F484C04CEE54E1B701C801D7
:104DA0000E945010882309F47BC04DEA55E1B701F9
:104DB000C8010E945010882309F472C044E054E1F5
:104DC000B701C8010E945010882309F469C04BEB59
:104DD00054E1B701C8010E945010882309F460C053
:104DE000109287028091960290E045E050E0B70172
:104DF00085569D4F0E946C3121E020934802892BFB
:104E000009F042C0C12C8C2D8D296696EDE00C94E2
:104E1000E43080E069CFD0904102DD2009F4A1CFD9
:104E200080913F02909140020E942317059708F459
:104E300098CF45E050E06CE872E0C8010E946C3108
:104E4000892B59F085E0ECE8F2E0D80101900D9251
:104E50008A95E1F71092410285CFD12CFBCF80914A
:104E60004202909143020E942317843F914008F030
:104E70008ACF80914802882329F285E0F7011192B8
:104E80008A95E9F710924802A0919602B0E0A556E3
:104E9000BD4F85E0F70101900D928A95E1F7B3CF00
:104EA000809187028F3F31F08F5F809387028A3035
:104EB00008F498CF0E9432179093430280934202E5
:104EC000D8CFA0909602B12CA50145565D4F5A014E
:104ED00085E0F801ACE5B2E001900D928A95E1F72A
:104EE00065E070E08CE592E00E94EF0980935B0240
:104EF00085E0E1E6F2E0D50101900D928A95E1F7B7
:104F000088E0E1EDF5E0A7E6B2E001900D928A9528
:104F1000E1F768E070E087E692E00E94EF09809395
:104F2000660280906F0290907002A0907102B09023
:104F300072028091440290914502A0914602B09184
:104F4000470288169906AA06BB06B1F08092440271
:104F500090924502A0924602B09247020E94D90860
:104F6000861A970AA80AB90A809288029092890242
:104F7000A0928A02B0928B028CE0E3E7F2E0D701C4
:104F800001900D928A95E1F79981892F86958695F2
:104F9000FA80EB80BC800A851B852C8510927D02EF
:104FA000112309F430CF14FD2093990310FF0AC098
:104FB00090FF1CC09091490691609093490660E073
:104FC0000E94B01E11FF06C020E04B2D6E2D8F2DCC
:104FD0000E94171312FF04C0002359F00E94941E70
:104FE00013FF11CF81E0809393030DCF0E949212A3
:104FF000E9CF0E94720AF4CFA6E0B0E0E2E0F8E266
:105000000C94D1300E9432178C0180913D02909116
:105010003E028017910781F019821A820E9432178E
:10502000682F49815A81792F80E090E00E9499256C
:1050300010933E0200933D022696E4E00C94ED307E
:105040001F921FB61F9211248F939F93AF93BF930C
:105050008091F005811113C08091F1059091F205C6
:10506000A091F305B091F4054196A11DB11D809367
:10507000F1059093F205A093F305B093F405BF9169
:10508000AF919F918F911F901FBE1F901895CDB724
:10509000DEB72E970FB6F894DEBF0FBECDBF85B733
:1050A000806885BF85B7806885BF84B7877F84BFE8
:1050B0000FB6F894A8958091600088618093600095
:1050C000109260000FBE80E890E00FB6F8948093D5
:1050D0006100909361000FBE81E49BE09093BF015B
:1050E0008093BE010E946B070E940C088091E20031
:1050F00084608093E2007894809102068823A1F076
:105100001091E9001F709091EC00892F817090FD43
:1051100080E8182B1092E9008091E80083FD0E943E
:1051200096171F701093E90082E084BD93E095BD4F
:105130009AEF97BD80936E001092880210928902B8
:1051400010928A0210928B028091D8008061809325
:10515000D8002AE12A95F1F700C08091D900182FD4
:10516000117080FD04C00E946B071092020610931C
:10517000E6051093E70510934001112309F4FDC0E3
:1051800010924B0184E280934C010E944D2FE1ED7F
:10519000F5E088E0DF011D928A95E9F780914001F2
:1051A00091E089278093B502809140019093B802E5
:1051B0008091400180914001811106C084EF80936D
:1051C000580185EF8093590160E080E00E94230A36
:1051D00061E080E00E94230AEFE8F1E03197F1F707
:1051E00000C0000010E08091B802181708F4CBC08E
:1051F000809140018091400195E0811190E0909371
:10520000970285E0891B8093960206E911E0D80198
:105210008D918D018F3F11F00E94470BB1E00B394A
:105220001B07A9F70BE911E0F80181918F018F3F6E
:1052300011F00E94470BF1E0013A1F07A9F78AE03D
:10524000EBE9F2E0DF01282F1D922A95E9F7ECE85F
:10525000F2E0DF011D928A95E9F790E080E00E947C
:105260009031853E9E4F09F461C065EE7EEF90E07F
:1052700080E00E94C43160E082E090E00E94A631AC
:1052800081E090E09093A4038093A30361E083E026
:1052900090E00E94A63160E074E184E090E00E941A
:1052A000C43160E086E090E00E94A63160E087E0D3
:1052B00090E00E94A63140E050E0BA0188E090E022
:1052C0000E94B83160E083E290E00E94A63160E085
:1052D0008CE090E00E94A63160E08DE090E00E94BA
:1052E000A63119821A821B821C821D821E821F8295
:1052F000188648E050E067E170E0CE0101960E9418
:10530000963140E050E0BA018FE190E00E94B83160
:1053100040E050E0BA018FE090E00E94B83140E0F8
:1053200050E0BA0183E190E00E94B83182E090E061
:105330000E9482318093A50284E090E00E94903127
:105340009093EF058093EE050E942426EFEFF6E799
:1053500021E0E150F0402040E1F700C000000E9451
:10536000242680919B0280FF20C06FEF7FEF90E0AA
:1053700080E00E94C4310E94C80884E280934B01FF
:1053800080934C0104CF60E0812F0E94070A082F10
:1053900061E0812F0E94070AE12FF0E0EA54FD4FFF
:1053A000880F802B80831F5F1ECF83E090E00E94D8
:1053B000823190E00E94880E8091510690915206B1
:1053C0000E94F90E8091E605882309F44FC183E01D
:1053D0008093C50580FD4CC180E88093A2030E94A4
:1053E000EB2D6BE070E08BEE95E00E94A11288231C
:1053F000E9F18091C50565E070E081FD3BC186EE75
:1054000095E00E94A112882389F16DE070E084ED9F
:1054100095E00E94A112882349F10E94D908605AA0
:1054200075418F4F9F4F6093C9057093CA05809354
:10543000CB059093CC05E5ECF3E080E092E0DF0152
:105440009C011D9221503040E1F7F093A103E093BD
:10545000A0038FEF9FEF9093C8058093C70581E06D
:105460008093D0058093CD051092C6058091980257
:10547000811186C088E090E00E948A314B015C0176
:1054800083E290E00E948231282F30E040E050E03B
:1054900060E070E080E090E000E20E942031282986
:1054A00039294A295B292093490630934A064093BB
:1054B0004B0650934C0660934D0670934E068093B6
:1054C0004F069093500630919803336030939803C1
:1054D0002C7F09F043C025E02093490610924A062C
:1054E0002FEF20934B0628E720934C0610924D0691
:1054F00025E030E04FEF58E760E00E94F11288E0CD
:1055000090E00E948A316B017C0183E290E00E946E
:105510008231282F30E040E050E060E070E080E031
:1055200090E00E942031B22FA32FF42FE52F5B01D2
:1055300097018601BC29A12BFE29E32BB0934906D4
:10554000A0934A06F0934B06E0934C0660934D06F9
:10555000B0924E0680934F06909350060E94950A93
:105560000E94720A0E94050A8091490680FF05C0C8
:1055700060E0869586950E94B01E81E08093980237
:105580008091E605811102C00E94502F86EF95E0C0
:105590009093BD028093BC0261E08AE00E94B01E3D
:1055A00081E491E09093EB058093EA0538E1632E66
:1055B000712C45EAC42E42E0D42E52E0A52EB12C27
:1055C00080910206FF24F39400E112E1853009F492
:1055D0009AC00E94242606EA12E02BE9E22E22E07D
:1055E000F22ED701F80191918D9142E0E03BF40752
:1055F00009F4A5C09817B9F32090E605912CD701BE
:105600008D907D01F80131908F01381431F1512CCA
:10561000442443943824832D8421B9F02220A9F016
:1056200059869A860E9432179C878B87F1E0FD8706
:1056300091E0882D842109F490E09E8749855A8560
:105640006B857C858D850E9499255394440C26E0BA
:105650005212E1CFF8013197808293943AE093128D
:10566000CECF0E945E0B552453946EC080E0B0CE26
:1056700080E2B3CE81EE95E0C4CE80910206843004
:1056800009F433C00E94720A80919A02811109C004
:10569000F0929A02809149068170809399020E944B
:1056A00092120E94AE121092F00530E40FB6F894F8
:1056B000A895609260000FBE3093600083B7817F31
:1056C000846083BF83B7816083BF7894889583B7F4
:1056D0008E7F83BF0FB6F894A89580916000886193
:1056E00080936000109260000FBE809101068823B5
:1056F00051F00E942426EBE9F2E081918111F5C17D
:10570000CE16DF06D1F780910206853009F4B5CFB9
:105710000E9465170E948E0910929A028091990248
:10572000882351F08091490681608093490660E0AA
:10573000869586950E94B01E0E94941E4ACF9813AB
:105740005BCF0E94FC27512C80919703882309F49A
:1057500065C080919603E0914906E695E695E81BC1
:10576000E0939203823009F095C0F0E0EA5FF94FD0
:10577000E4910E2F10E09CE6E92E92E1F92E809143
:105780009303882361F0109293030E94891E9093E3
:1057900091038093900310929503109294030E94BA
:1057A000891EE0919003F09191039C012E1B3F0B09
:1057B0002F3F3F4798F52091B2022223B1F010927B
:1057C000B2022091B0023091B102821B930B8F3F45
:1057D0009F4758F4205D3A483093B1022093B002BD
:1057E00080919803886080939803809094039090B0
:1057F00095030E0F1F1F109391030093900380E9F0
:1058000093E0F70109958091940390919503892B7A
:1058100029F4892819F081E08093B2028091BB02BB
:10582000882369F01092BB0280919703811107C011
:105830008091490660E0869586950E94B01EE090B2
:10584000E605EE2019F00E94A11CE82E8091B90215
:10585000882351F01092B9028091D3058093D4052A
:105860008091D1058093D205F12C8091B802F81671
:10587000C0F08091E605882319F00E94A11CE82A57
:10588000EE2009F44AC00E945E0B0E94F11C0E94A7
:10589000C91247C000ED17E081E7E82E8AE0F82E34
:1058A0006ECF61E08F2D0E94070A182F60E08F2DC8
:1058B0000E94070AE12FEE0F8E2B0F2D10E0D8016A
:1058C000AA54BD4FEC919E2F9370891721F1EE0FD2
:1058D000EE0FE82BEC938091B5028F0DEF70F0E0A6
:1058E000EF55FE4F0D541D4F9080D8019C91990E9D
:1058F0009C92B1E061E0B91524F0EFEF9E161CF424
:1059000060E00E94460A892D990C990BB5010E940E
:105910000631D8018C93F394A8CF0E94F11C51104A
:10592000B6CF86E0E0EEF5E0DE01119601900D9233
:105930008A95E1F79090E105F090E2051091E3057A
:10594000E090E4050091E5051092E2051092E30570
:105950001092E4051092E505812F8F2909F445C0C6
:105960008091DE059091DF050E9423179C019091A4
:10597000D905992309F4D8C025313105B0F19F3FED
:1059800019F09F5F9093D905FF2059F00E94C1093B
:105990009FEF1F140CF491E0899F802D11248093B8
:1059A000E205112359F00E94C10991E011160CF093
:1059B0009FEF899F802D11248093E3058091E2055C
:1059C000882399F08090E305882079F00E94E1090E
:1059D000882309F482C08093E205882D0E94E109A2
:1059E000882309F47CC08093E3058E2D802B09F475
:1059F00043C08091DC059091DD050E9423179C0136
:105A00009091DA05992309F48AC021353105A0F176
:105A10009F3F19F09F5F9093DA05EE2059F00E94A6
:105A20009F099FEF1E140CF491E0899F802D112493
:105A30008093E405002359F00E949F0991E010161D
:105A40000CF09FEF899F802D11248093E5058091B4
:105A5000E405882389F0E090E505EE2069F00E94D6
:105A6000E1098823F1F18093E4058E2D0E94E1097C
:105A70008823C9F18093E5058091E105981216C04D
:105A80008091E205882311F08F1110C02091E30569
:105A9000222311F012130AC09091E505992311F009
:105AA000091304C03091E4053323A9F10E943E1785
:105AB00086E0FE013196A0EEB5E001900D928A9548
:105AC000E1F70E948E099091BA02891709F478CD06
:105AD0008093BA020E94D90873CD81E07CCF81E027
